{
  "contractName": "tictactoe",
  "abi": [
    {
      "inputs": [],
      "payable": true,
      "stateMutability": "payable",
      "type": "constructor"
    },
    {
      "constant": false,
      "inputs": [],
      "name": "kill",
      "outputs": [],
      "payable": false,
      "stateMutability": "nonpayable",
      "type": "function"
    },
    {
      "constant": true,
      "inputs": [
        {
          "name": "gameState",
          "type": "bytes9"
        }
      ],
      "name": "showWinner",
      "outputs": [
        {
          "name": "",
          "type": "bytes1"
        }
      ],
      "payable": false,
      "stateMutability": "pure",
      "type": "function"
    }
  ],
  "bytecode": "0x6080604052336000806101000a81548173ffffffffffffffffffffffffffffffffffffffff021916908373ffffffffffffffffffffffffffffffffffffffff160217905550610bc4806100536000396000f30060806040526004361061004c576000357c0100000000000000000000000000000000000000000000000000000000900463ffffffff16806341c0e1b514610051578063af0eac8b14610068575b600080fd5b34801561005d57600080fd5b50610066610107565b005b34801561007457600080fd5b506100ad600480360381019080803576ffffffffffffffffffffffffffffffffffffffffffffff19169060200190929190505050610198565b60405180827effffffffffffffffffffffffffffffffffffffffffffffffffffffffffffff19167effffffffffffffffffffffffffffffffffffffffffffffffffffffffffffff1916815260200191505060405180910390f35b6000809054906101000a900473ffffffffffffffffffffffffffffffffffffffff1673ffffffffffffffffffffffffffffffffffffffff163373ffffffffffffffffffffffffffffffffffffffff161415610196576000809054906101000a900473ffffffffffffffffffffffffffffffffffffffff1673ffffffffffffffffffffffffffffffffffffffff16ff5b565b6000806000806000806000807f010000000000000000000000000000000000000000000000000000000000000002935060ff7f01000000000000000000000000000000000000000000000000000000000000000292506101f78861037b565b8096508197505050851515610274576040517f08c379a00000000000000000000000000000000000000000000000000000000081526004018080602001828103825260178152602001807f4e6f7420612076616c69642067616d652073746174652e00000000000000000081525060200191505060405180910390fd5b837effffffffffffffffffffffffffffffffffffffffffffffffffffffffffffff1916857effffffffffffffffffffffffffffffffffffffffffffffffffffffffffffff1916141561036d5760019150600090505b6009811015610362578180156103535750837effffffffffffffffffffffffffffffffffffffffffffffffffffffffffffff1916888260098110151561030b57fe5b1a7f0100000000000000000000000000000000000000000000000000000000000000027effffffffffffffffffffffffffffffffffffffffffffffffffffffffffffff191614155b915080806001019150506102c9565b811561036c578294505b5b849650505050505050919050565b600080600080600061038c866103b6565b809350819450505061039d86610549565b80156103a65750825b9050808294509450505050915091565b6000806000806000806000807f0100000000000000000000000000000000000000000000000000000000000000029450849350600090506103fc6000600160028b6107ef565b80945081935050506000821315610411578293505b81810190506104256000600360068b6107ef565b8094508193505050600082131561043a578293505b818101905061044e6000600460088b6107ef565b80945081935050506000821315610463578293505b81810190506104776001600460078b6107ef565b8094508193505050600082131561048c578293505b81810190506104a06002600460068b6107ef565b809450819350505060008213156104b5578293505b81810190506104c96002600560088b6107ef565b809450819350505060008213156104de578293505b81810190506104f26003600460058b6107ef565b80945081935050506000821315610507578293505b818101905061051b6006600760088b6107ef565b80945081935050506000821315610530578293505b8181019050600181131584965096505050505050915091565b60008060008060008060008060008060006001995060117f010000000000000000000000000000000000000000000000000000000000000002975060aa7f010000000000000000000000000000000000000000000000000000000000000002965060007f01000000000000000000000000000000000000000000000000000000000000000295506000945060009350600092505b60098310156107be578b836009811015156105f457fe5b1a7f0100000000000000000000000000000000000000000000000000000000000000029850877effffffffffffffffffffffffffffffffffffffffffffffffffffffffffffff1916897effffffffffffffffffffffffffffffffffffffffffffffffffffffffffffff1916141561066e5784806001019550505b867effffffffffffffffffffffffffffffffffffffffffffffffffffffffffffff1916897effffffffffffffffffffffffffffffffffffffffffffffffffffffffffffff191614156106c35783806001019450505b8980156107af5750877effffffffffffffffffffffffffffffffffffffffffffffffffffffffffffff1916897effffffffffffffffffffffffffffffffffffffffffffffffffffffffffffff191614806107605750867effffffffffffffffffffffffffffffffffffffffffffffffffffffffffffff1916897effffffffffffffffffffffffffffffffffffffffffffffffffffffffffffff1916145b806107ae5750857effffffffffffffffffffffffffffffffffffffffffffffffffffffffffffff1916897effffffffffffffffffffffffffffffffffffffffffffffffffffffffffffff1916145b5b995082806001019350506105dd565b838503915060018214806107d25750600082145b90508980156107de5750805b9a5050505050505050505050919050565b600080600080600080600080945060117f010000000000000000000000000000000000000000000000000000000000000002935060aa7f010000000000000000000000000000000000000000000000000000000000000002925060007f0100000000000000000000000000000000000000000000000000000000000000029150819050817effffffffffffffffffffffffffffffffffffffffffffffffffffffffffffff1916888c6009811015156108a357fe5b1a7f0100000000000000000000000000000000000000000000000000000000000000027effffffffffffffffffffffffffffffffffffffffffffffffffffffffffffff1916141515610b8457837effffffffffffffffffffffffffffffffffffffffffffffffffffffffffffff1916888c60098110151561092057fe5b1a7f0100000000000000000000000000000000000000000000000000000000000000027effffffffffffffffffffffffffffffffffffffffffffffffffffffffffffff191614806109e45750827effffffffffffffffffffffffffffffffffffffffffffffffffffffffffffff1916888c60098110151561099d57fe5b1a7f0100000000000000000000000000000000000000000000000000000000000000027effffffffffffffffffffffffffffffffffffffffffffffffffffffffffffff1916145b8015610b425750878a6009811015156109f957fe5b1a7f0100000000000000000000000000000000000000000000000000000000000000027effffffffffffffffffffffffffffffffffffffffffffffffffffffffffffff1916888c600981101515610a4c57fe5b1a7f0100000000000000000000000000000000000000000000000000000000000000027effffffffffffffffffffffffffffffffffffffffffffffffffffffffffffff1916148015610b4157508789600981101515610aa757fe5b1a7f0100000000000000000000000000000000000000000000000000000000000000027effffffffffffffffffffffffffffffffffffffffffffffffffffffffffffff1916888b600981101515610afa57fe5b1a7f0100000000000000000000000000000000000000000000000000000000000000027effffffffffffffffffffffffffffffffffffffffffffffffffffffffffffff1916145b5b15610b505784806001019550505b878b600981101515610b5e57fe5b1a7f01000000000000000000000000000000000000000000000000000000000000000290505b8481965096505050505050945094925050505600a165627a7a72305820b02f113491031d872b6e400fdaa4d9f090e115299af5acb242d9345bfe303bc90029",
  "source": "pragma solidity ^0.4.0;\n\n/// @title tictactoe\n/// @author Robert Watkins\n/// @notice An experiment in writing Solidity\ncontract tictactoe {\n    address owner;\n\n    constructor() payable public{\n        owner = msg.sender;\n    }\n\n    function kill() public {\n        if (msg.sender == owner) selfdestruct(owner);\n    }\n\n    /// @author Robert Watkins\n    /// @dev We are simply counting the instances of each players mark to ensure there is no obvious cheating.\n    /// @param gameState represents the current state of the game\n    function validPlayersTakingTurns(bytes9 gameState) pure private returns (bool){\n      bool validPlayers = true;\n      bytes1 currentSpaceValue;\n      bytes1 eX = 0x11;\n      bytes1 oH = 0xAA;\n      bytes1 unplayed = 0x00;\n      int eXCount = 0;\n      int oHCount = 0;\n      uint i;\n      \n      //playing spaces should only have valid entries (X,O,unplayed)\n      for (i=0; i<9; i++){\n        currentSpaceValue = gameState[i];\n        if (currentSpaceValue == eX) {eXCount++;}\n        if (currentSpaceValue == oH) {oHCount++;}\n        validPlayers = (validPlayers && (currentSpaceValue == eX || currentSpaceValue == oH || currentSpaceValue == unplayed) );\n      }\n      \n      //the difference in the number of moves for each player should not be off by more than 1\n      //and only the X player could have more moves.\n      int diffInMoveCount = eXCount - oHCount;\n      bool takingTurns = (diffInMoveCount == 1 || diffInMoveCount == 0 );\n      \n      return (validPlayers && takingTurns);\n    }\n    \n    /// @author Robert Watkins\n    /// @dev we will send a count of '1' if the pattern of player moves match values in the game state.\n    ///      The matching value will default to 'unplayed' if the count is 0. Otherwise, the matching\n    ///      player mark will be returned.\n    /// @param gameState represents the current state of the game\n    function countIfMatching (uint256 playerMoveAtLocation1, uint256 playerMoveAtLocation2, uint256 playerMoveAtLocation3, bytes9 gameState) pure private returns (int, bytes1) {\n        int count = 0;\n        bytes1 eX = 0x11;\n        bytes1 oH = 0xAA;\n        bytes1 unplayed = 0x00;\n        bytes1 matchingValue = unplayed;\n        if (gameState[playerMoveAtLocation1] != unplayed) {\n            if ((gameState[playerMoveAtLocation1] == eX || gameState[playerMoveAtLocation1] == oH) \n                    &&(gameState[playerMoveAtLocation1] == gameState[playerMoveAtLocation2] \n                    && gameState[playerMoveAtLocation2] == gameState[playerMoveAtLocation3])){\n               count++;\n            }\n            matchingValue = gameState[playerMoveAtLocation1];\n        }\n        return (count, matchingValue);\n    }\n    \n    /// @author Robert Watkins\n    /// @dev We will check for matching values (X,O,unplayed) for winning patters (first row, diagonal, etc.)\n    ///      and return how many winning patterns found and the player for the last winning pattern found.\n    ///      This implies that if there is exactly one winner, it is the last one found.\n    /// @param gameState represents the current state of the game\n    function hasOnlyOneWinner(bytes9 gameState) pure private returns (bool, bytes1){\n        bytes1 unplayed = 0x00;\n        bytes1 lastFoundWinner = unplayed;\n        bytes1 matchingValue;\n        int count;\n        int totalWinnerCount = 0;\n        (count, matchingValue) = countIfMatching(0,1,2,gameState);\n        if (count > 0) {lastFoundWinner = matchingValue;}\n        totalWinnerCount += count;\n        (count, matchingValue) = countIfMatching(0,3,6,gameState);\n        if (count > 0) {lastFoundWinner = matchingValue;}\n        totalWinnerCount += count;\n        (count, matchingValue) = countIfMatching(0,4,8,gameState);\n        if (count > 0) {lastFoundWinner = matchingValue;}\n        totalWinnerCount += count;\n        (count, matchingValue) = countIfMatching(1,4,7,gameState);\n        if (count > 0) {lastFoundWinner = matchingValue;}\n        totalWinnerCount += count;\n        (count, matchingValue) = countIfMatching(2,4,6,gameState);\n        if (count > 0) {lastFoundWinner = matchingValue;}\n        totalWinnerCount += count;\n        (count, matchingValue) = countIfMatching(2,5,8,gameState);\n        if (count > 0) {lastFoundWinner = matchingValue;}\n        totalWinnerCount += count;\n        (count, matchingValue) = countIfMatching(3,4,5,gameState);\n        if (count > 0) {lastFoundWinner = matchingValue;}\n        totalWinnerCount += count;\n        (count, matchingValue) = countIfMatching(6,7,8,gameState);\n        if (count > 0) {lastFoundWinner = matchingValue;}\n        totalWinnerCount += count;\n        return (totalWinnerCount<=1,lastFoundWinner);\n    }\n    \n    /// @author Robert Watkins\n    /// @dev By convention we will use '0x00' for a space not played, '0x11' for 'X' and '0xAA' for 'O'.\n    ///      Return a boolean indicating the game state is valid or not.\n    /// @param gameState represents the current state of the game\n    function isValid(bytes9 gameState) pure private returns (bool, bytes1){\n        bool onlyOneWinner;\n        bytes1 winner;\n        (onlyOneWinner, winner) = hasOnlyOneWinner(gameState);\n        bool validGame = validPlayersTakingTurns(gameState) && onlyOneWinner;\n        return (validGame,winner);\n    }\n\n    /// @author Robert Watkins\n    /// @notice Return a message indicating if the game state is valid\n    /// @dev By convention we will use '0x00' for a space not played, '0x11' for 'X' and '0xAA' for 'O', 'CAT' (0xFF)\n    /// @param gameState represents the current state of the game\n    function showWinner(bytes9 gameState) pure public returns (bytes1) {\n        bool validGame;\n        bytes1 winner;\n        bytes1 unplayed = 0x00;\n        bytes1 cat = 0xFF;\n        (validGame, winner) = isValid(gameState);\n        require(validGame,\"Not a valid game state.\");\n        \n        if (winner == unplayed){\n            bool isCatWinner = true; \n            uint i;\n            for (i=0; i<9; i++){\n                isCatWinner = (isCatWinner && (gameState[i] != unplayed));\n            }\n            if (isCatWinner) {winner = cat;}\n        }\n        return winner;\n    }\n}\n\n\n",
  "sourcePath": "/home/rwatkins/code/playground-robert/blockchain/solidity/src/tictactoe/v1/contracts/tictactoe.sol",
  "compiler": {
    "name": "solc",
    "version": "0.4.23+commit.124ca40d.Emscripten.clang"
  },
  "schemaVersion": "2.0.0",
  "updatedAt": "2018-04-28T21:15:04.647Z"
}